{
  "_format": "hh-sol-artifact-1",
  "contractName": "Wallet",
  "sourceName": "contracts/Wallet.sol",
  "abi": [
    {
      "stateMutability": "payable",
      "type": "fallback"
    },
    {
      "inputs": [],
      "name": "getBalance",
      "outputs": [
        {
          "internalType": "uint256",
          "name": "",
          "type": "uint256"
        }
      ],
      "stateMutability": "view",
      "type": "function"
    },
    {
      "inputs": [
        {
          "internalType": "address payable",
          "name": "_to",
          "type": "address"
        },
        {
          "internalType": "uint256",
          "name": "_montant",
          "type": "uint256"
        }
      ],
      "name": "withdrawMoney",
      "outputs": [],
      "stateMutability": "nonpayable",
      "type": "function"
    },
    {
      "stateMutability": "payable",
      "type": "receive"
    }
  ],
  "bytecode": "0x608060405234801561001057600080fd5b506104ab806100206000396000f3fe60806040526004361061002d5760003560e01c806312065fe01461008b578063f274c897146100b657610089565b3661008957346000803373ffffffffffffffffffffffffffffffffffffffff1673ffffffffffffffffffffffffffffffffffffffff16815260200190815260200160002060008282546100809190610329565b92505081905550005b005b34801561009757600080fd5b506100a06100df565b6040516100ad91906102fd565b60405180910390f35b3480156100c257600080fd5b506100dd60048036038101906100d8919061026f565b610125565b005b60008060003373ffffffffffffffffffffffffffffffffffffffff1673ffffffffffffffffffffffffffffffffffffffff16815260200190815260200160002054905090565b6000803373ffffffffffffffffffffffffffffffffffffffff1673ffffffffffffffffffffffffffffffffffffffff1681526020019081526020016000205481106101a5576040517f08c379a000000000000000000000000000000000000000000000000000000000815260040161019c906102dd565b60405180910390fd5b806000803373ffffffffffffffffffffffffffffffffffffffff1673ffffffffffffffffffffffffffffffffffffffff16815260200190815260200160002060008282546101f3919061037f565b925050819055508173ffffffffffffffffffffffffffffffffffffffff166108fc829081150290604051600060405180830381858888f19350505050158015610240573d6000803e3d6000fd5b505050565b60008135905061025481610447565b92915050565b6000813590506102698161045e565b92915050565b6000806040838503121561028257600080fd5b600061029085828601610245565b92505060206102a18582860161025a565b9150509250929050565b60006102b8601183610318565b91506102c38261041e565b602082019050919050565b6102d7816103e5565b82525050565b600060208201905081810360008301526102f6816102ab565b9050919050565b600060208201905061031260008301846102ce565b92915050565b600082825260208201905092915050565b6000610334826103e5565b915061033f836103e5565b9250827fffffffffffffffffffffffffffffffffffffffffffffffffffffffffffffffff03821115610374576103736103ef565b5b828201905092915050565b600061038a826103e5565b9150610395836103e5565b9250828210156103a8576103a76103ef565b5b828203905092915050565b60006103be826103c5565b9050919050565b600073ffffffffffffffffffffffffffffffffffffffff82169050919050565b6000819050919050565b7f4e487b7100000000000000000000000000000000000000000000000000000000600052601160045260246000fd5b7f4e6f7420656e6f756768742066756e6473000000000000000000000000000000600082015250565b610450816103b3565b811461045b57600080fd5b50565b610467816103e5565b811461047257600080fd5b5056fea264697066735822122013e288b613fff0706ef2f74135a8b214ba7f4ff099ba9868098b1c51b49f5a2864736f6c63430008040033",
  "linkReferences": {},
  "deployedLinkReferences": {}
}